MPASM  5.44                    INSOLADORA.ASM   1-24-2017  21:23:02         PAGE  1


LOC  OBJECT CODE     LINE SOURCE TEXT
  VALUE

                      00001 
                      00002 ; PIC16F84A Configuration Bit Settings
                      00003 
                      00004 ; Assembly source line config statements
                      00005 
                      00006 #include "p16f84a.inc"
                      00001         LIST
                      00002 
                      00003 ;==========================================================================
                      00004 ;  MPASM PIC16F84A processor include
                      00005 ; 
                      00006 ;  (c) Copyright 1999-2012 Microchip Technology, All rights reserved
                      00007 ;==========================================================================
                      00008 
                      00208         LIST
                      00007 
                      00008 ; CONFIG
                      00009 ; __config 0x3FF2
2007   3FF2           00010  __CONFIG _FOSC_HS & _WDTE_OFF & _PWRTE_ON & _CP_OFF
                      00011 
                      00012  
                      00013 RES_VECT  CODE    0x0000            ; processor reset vector
0000   2???           00014    GOTO    START                   ; go to beginning of program
                      00015     
                      00016 INTE_VECT CODE 0x0004
0004   2???           00017     GOTO    INTER
                      00018         
                      00019         
                      00020         
                      00021     
                      00022 
                      00023 
                      00024 ;MAIN_PROG CODE                      ; let linker place main program
                      00025 
                      00026 
Warning[205]: Found directive in column 1. (CBLOCK)
                      00027 CBLOCK  0X20
  00000020            00028         REG1
  00000021            00029         REG2
  00000022            00030         REG3
  00000023            00031         REG4
  00000024            00032         SEGUNDOS
  00000025            00033         MINUTOS
  00000026            00034         CUENTA
  00000027            00035         CARAC
  00000028            00036         RELCD
  00000029            00037         PUERTO
                      00038         
Warning[205]: Found directive in column 1. (ENDC)
                      00039 ENDC
                      00040 
0005   0782           00041 LIN1    ADDWF   PCL,1
0006   3449 344E 3453 00042                 DT      "INSOLADORA 2.0  "
MPASM  5.44                    INSOLADORA.ASM   1-24-2017  21:23:02         PAGE  2


LOC  OBJECT CODE     LINE SOURCE TEXT
  VALUE

       344F 344C 3441 
       3444 344F 3452 
       3441 3420 3432 
       342E 3430 3420 
       3420 
0016   0782           00043 LIN2    ADDWF   PCL,1
0017   3420 3420 3452 00044                 DT      "  Rootdevel     "
       346F 346F 3474 
       3464 3465 3476 
       3465 346C 3420 
       3420 3420 3420 
       3420 
                      00045                 
0027                  00046 INTER
0027   110B           00047         BCF             INTCON,2
0028   00A1           00048         MOVWF   REG2
0029   0E03           00049         SWAPF   STATUS,W
002A   00A2           00050         MOVWF   REG3
002B   0AA3           00051         INCF    REG4,1
002C   1E23           00052         BTFSS   REG4,4                  ;PREGUNTA SI LLEGO A 16
002D   2???           00053         GOTO    FIN_INTER
002E   0AA4           00054         INCF    SEGUNDOS,1
002F   01A3           00055         CLRF    REG4
0030   303B           00056         MOVLW   0x3B
0031   0624           00057         XORWF   SEGUNDOS,W
0032   1D03           00058         BTFSS   STATUS,2
0033   2???           00059         GOTO    FIN_INTER
Message[305]: Using default destination of 1 (file).
0034   0AA5           00060         INCF    MINUTOS
0035   01A4           00061         CLRF    SEGUNDOS
0036   303B           00062         MOVLW   0x3B
0037   0625           00063         XORWF   MINUTOS,W
0038   1D03           00064         BTFSS   STATUS,2
0039   2???           00065         GOTO    FIN_INTER
003A   01A5           00066         CLRF    MINUTOS
                      00067                 
003B                  00068 FIN_INTER       
003B   0009           00069         RETFIE
                      00070         
                      00071         
                      00072         
                      00073 
003C                  00074 START
003C   1283           00075     BCF STATUS, RP0 ;
003D   0185           00076         CLRF    PORTA
003E   0186           00077     CLRF    PORTB   
003F   30A0           00078         MOVLW   B'10100000'
0040   008B           00079         MOVWF   INTCON
0041   300E           00080         MOVLW   0x0E
0042   0081           00081         MOVWF   TMR0    
                      00082         ;MOVLW  B'
0043   1683           00083     BSF STATUS, RP0 ;Select Bank 1
0044   3000           00084     MOVLW   0x00   
MPASM  5.44                    INSOLADORA.ASM   1-24-2017  21:23:02         PAGE  3


LOC  OBJECT CODE     LINE SOURCE TEXT
  VALUE

Message[302]: Register in operand not in bank 0.  Ensure that bank bits are correct.
0045   0086           00085     MOVWF   TRISB   ;Set RB<7:0> as outputs
0046   30FF           00086     MOVLW       0XFF
Message[302]: Register in operand not in bank 0.  Ensure that bank bits are correct.
0047   0085           00087         MOVWF   TRISA
0048   3007           00088         MOVLW   B'00000111'
Message[302]: Register in operand not in bank 0.  Ensure that bank bits are correct.
0049   0081           00089         MOVWF   OPTION_REG
004A   1283           00090         BCF     STATUS, RP0 ;
004B   2???           00091         CALL    IN4_BIT
                      00092         
004C   3001           00093         MOVLW   B'00000001'                     ;BORRA Y REGRESA A CERO
004D   2???           00094         CALL    COMAND4 
                      00095         
                      00096 ;       CALL    ON_RELAY
                      00097 ;       CALL    ON_BUZZER
                      00098         
004E   01A7           00099         CLRF    CARAC
004F   0827           00100 CON1    MOVF    CARAC,0
0050   2???           00101                 CALL    LIN1
0051   2???           00102                 CALL    DATO4
0052   0AA7           00103                 INCF    CARAC,1
0053   1E27           00104                 BTFSS   CARAC,4                 ;PREGUNTA SI LLEGO A 16
0054   2???           00105                 GOTO    CON1
                      00106 
0055   30C0           00107                 MOVLW   B'11000000'             ;APUNTADOR A LINEA 2 POSICION CERO
0056   2???           00108                 CALL    COMAND4 
                      00109 
0057   01A7           00110                 CLRF    CARAC
0058   0827           00111 CON2    MOVF    CARAC,0
0059   2???           00112                 CALL    LIN2
005A   2???           00113                 CALL    DATO4
005B   0AA7           00114                 INCF    CARAC,1
005C   1E27           00115                 BTFSS   CARAC,4                 ;PREGUNTA SI LLEGO A 16
005D   2???           00116                 GOTO    CON2
005E                  00117 BUCLE
005E   0805           00118                 MOVF    PORTA,W
005F   00A0           00119                 MOVWF   REG1
0060   1820           00120                 BTFSC   REG1,0
0061   2???           00121                 GOTO    PAS_2
0062   2???           00122                 CALL    PLAY
0063                  00123 PAS_2
0063   18A0           00124                 BTFSC   REG1,1
0064   2???           00125                 GOTO    PAS_3
0065   2???           00126                 CALL    STOP
0066                  00127 PAS_3
0066   1920           00128         BTFSC   REG1,2
0067   2???           00129                 GOTO    PAS_4
0068   2???           00130                 CALL    ADD
0069                  00131 PAS_4
0069   19A0           00132                 BTFSC   REG1,3
006A   2???           00133                 GOTO    PAS_5
006B   2???           00134                 CALL    SUB
MPASM  5.44                    INSOLADORA.ASM   1-24-2017  21:23:02         PAGE  4


LOC  OBJECT CODE     LINE SOURCE TEXT
  VALUE

006C                  00135 PAS_5
006C   1A20           00136                 BTFSC   REG1,4
006D   2???           00137                 GOTO    BUCLE
006E   2???           00138                 CALL    SELECT
                      00139                 
006F   2???           00140                 GOTO    BUCLE
                      00141                 
                      00142                 
0070   2???           00143                 GOTO    $
                      00144                 
                      00145                 
                      00146 
                      00147 ;------------------------------------------------------------------
                      00148 
0071                  00149 PLAY
0071   2???           00150         CALL    ON_BUZZER
0072   0008           00151         RETURN
                      00152 
0073                  00153 STOP
0073   2???           00154         CALL    OFF_BUZZER
0074   0008           00155         RETURN
                      00156         
0075                  00157 ADD     
0075   2???           00158         CALL    ON_RELAY
0076   0008           00159         RETURN 
0077                  00160 SUB
0077   2???           00161         CALL    OFF_RELAY
0078   0008           00162         RETURN
                      00163         
0079                  00164 SELECT
0079   2???           00165         CALL    OFF_RELAY
007A   0008           00166         RETURN
                      00167                         
                      00168 
                      00169 
                      00170 ;-----------RUTINA DE INICIACION DE LCD DE 4 BITS---------------------
007B   3004           00171 IN4_BIT MOVLW   0X04
007C   2???           00172                 CALL    COMAND4                         ;ACTIVA DISPLAY
007D   3032           00173                 MOVLW   32                      ;COMUNICACION A 4 BITS DOS LINEAS FUENTE 5X7
007E   2???           00174                 CALL    COMAND4 
007F   3028           00175                 MOVLW   28                      ;NO SE DESPLAZA, APUNTADOR SE INCREMENTA CON NUEVA ESCRI
                            TURA DE DATO
0080   2???           00176                 CALL    COMAND4 
0081   300C           00177                 MOVLW   0X0C                    ;BORRA Y REGRESA A CERO
0082   2???           00178                 CALL    COMAND4
0083   3006           00179                 MOVLW   B'00000110'
0084   2???           00180                 CALL    COMAND4
0085   3001           00181                 MOVLW   0X01
0086   2???           00182                 CALL    COMAND4
0087   0008           00183                 RETURN
                      00184 ;------------------------------------------------------------------------               
                      00185 
                      00186 ;------------RUTINA DE ENVIO DE DATOS Y COMANDOS A LCD----
MPASM  5.44                    INSOLADORA.ASM   1-24-2017  21:23:02         PAGE  5


LOC  OBJECT CODE     LINE SOURCE TEXT
  VALUE

0088   1106           00187 COMAND4 BCF             PORTB,2                 ;ENVIO DE COMANDO (JULIAN, EL BIT DEL PROTEUS ES EL INVE
                            RTIDO DEL DATASHEET)
0089   2???           00188                 GOTO    $+2
008A   1506           00189 DATO4   BSF             PORTB,2                 ;ENVIO DE DATO
008B   00A9           00190                 MOVWF   PUERTO
008C   300F           00191                 MOVLW   B'00001111'
008D   0586           00192                 ANDWF   PORTB,1
008E   0829           00193                 MOVF    PUERTO,0
008F   39F0           00194                 ANDLW   B'11110000'
0090   0486           00195                 IORWF   PORTB,1
                      00196 
                      00197 
0091   1586           00198                 BSF             PORTB,3                 ;HABILITA PANTALLA
0092   2???           00199                 CALL    RETLCD
0093   1186           00200                 BCF             PORTB,3                 ;DESHABILITA PANTALLA
0094   2???           00201                 CALL    RETLCD
                      00202 
0095   300F           00203                 MOVLW   B'00001111'             ;BORRA PARTE ALTA DE PORTB
0096   0586           00204                 ANDWF   PORTB,1
                      00205 
0097   0E29           00206                 SWAPF   PUERTO,0
0098   39F0           00207                 ANDLW   B'11110000'
                      00208 
0099   0486           00209                 IORWF   PORTB,1
                      00210         
009A   1586           00211                 BSF             PORTB,3                 ;HABILITA PANTALLA
009B   2???           00212                 CALL    RETLCD
009C   1186           00213                 BCF             PORTB,3                 ;DESHABILITA PANTALLA
009D   2???           00214                 CALL    RETLCD
                      00215 
009E   0008           00216                 RETURN
                      00217 ;----------------------------------------------------------
                      00218 ;-------------RUTINA DE RETARDO PARA LCD----
009F                  00219 RETLCD  
009F   30FF           00220         MOVLW   .255
00A0   00A8           00221         MOVWF   RELCD
00A1                  00222 RETLCD1 
00A1   0000           00223         NOP
00A2   0000           00224         NOP
00A3   0000           00225         NOP
00A4   0000           00226         NOP
00A5   0000           00227         NOP
00A6   0000           00228         NOP
00A7   0000           00229         NOP
00A8   0000           00230         NOP
00A9   0BA8           00231         DECFSZ  RELCD,1
00AA   2???           00232         GOTO    RETLCD1
00AB   0008           00233         RETURN
                      00234 ;-------------------------------------------
                      00235 
                      00236 ;------------ON RELAY-------------------------
00AC                  00237 ON_RELAY
00AC   1486           00238         BSF     PORTB,1
MPASM  5.44                    INSOLADORA.ASM   1-24-2017  21:23:02         PAGE  6


LOC  OBJECT CODE     LINE SOURCE TEXT
  VALUE

00AD   0008           00239         RETURN
                      00240 ;---------------------------------------------
                      00241 
                      00242 ;------------OFF RELAY------------------------
00AE                  00243 OFF_RELAY
00AE   1086           00244         BCF     PORTB,1
00AF   0008           00245         RETURN
                      00246 ;---------------------------------------------
                      00247 
                      00248 ;------------ON BUZZER------------------------
00B0                  00249 ON_BUZZER       
00B0   1406           00250         BSF     PORTB,0
00B1   0008           00251         RETURN
                      00252 ;---------------------------------------------
                      00253 ;-----------OFF BUZZER------------------------
00B2                  00254 OFF_BUZZER
00B2   1006           00255         BCF     PORTB,0
00B3   0008           00256         RETURN
                      00257 ;---------------------------------------------
                      00258 
00B4   2???           00259     GOTO $                          ; loop forever
                      00260 
3FF2                  00261     END
MPASM  5.44                    INSOLADORA.ASM   1-24-2017  21:23:02         PAGE  7


SYMBOL TABLE
  LABEL                             VALUE 

ADD                               00000075
BUCLE                             0000005E
C                                 00000000
CARAC                             00000027
COMAND4                           00000088
CON1                              0000004F
CON2                              00000058
CUENTA                            00000026
DATO4                             0000008A
DC                                00000001
EEADR                             00000009
EECON1                            00000088
EECON2                            00000089
EEDATA                            00000008
EEIE                              00000006
EEIF                              00000004
F                                 00000001
FIN_INTER                         0000003B
FSR                               00000004
GIE                               00000007
IN4_BIT                           0000007B
INDF                              00000000
INTCON                            0000000B
INTE                              00000004
INTEDG                            00000006
INTER                             00000027
INTF                              00000001
IRP                               00000007
LIN1                              00000005
LIN2                              00000016
MINUTOS                           00000025
NOT_PD                            00000003
NOT_RBPU                          00000007
NOT_TO                            00000004
OFF_BUZZER                        000000B2
OFF_RELAY                         000000AE
ON_BUZZER                         000000B0
ON_RELAY                          000000AC
OPTION_REG                        00000081
PAS_2                             00000063
PAS_3                             00000066
PAS_4                             00000069
PAS_5                             0000006C
PCL                               00000002
PCLATH                            0000000A
PLAY                              00000071
PORTA                             00000005
PORTB                             00000006
PS0                               00000000
PS1                               00000001
PS2                               00000002
PSA                               00000003
PUERTO                            00000029
MPASM  5.44                    INSOLADORA.ASM   1-24-2017  21:23:02         PAGE  8


SYMBOL TABLE
  LABEL                             VALUE 

RA0                               00000000
RA1                               00000001
RA2                               00000002
RA3                               00000003
RA4                               00000004
RB0                               00000000
RB1                               00000001
RB2                               00000002
RB3                               00000003
RB4                               00000004
RB5                               00000005
RB6                               00000006
RB7                               00000007
RBIE                              00000003
RBIF                              00000000
RD                                00000000
REG1                              00000020
REG2                              00000021
REG3                              00000022
REG4                              00000023
RELCD                             00000028
RETLCD                            0000009F
RETLCD1                           000000A1
RP0                               00000005
RP1                               00000006
SEGUNDOS                          00000024
SELECT                            00000079
START                             0000003C
STATUS                            00000003
STOP                              00000073
SUB                               00000077
T0CS                              00000005
T0IE                              00000005
T0IF                              00000002
T0SE                              00000004
TMR0                              00000001
TMR0IE                            00000005
TMR0IF                            00000002
TRISA                             00000085
TRISA0                            00000000
TRISA1                            00000001
TRISA2                            00000002
TRISA3                            00000003
TRISA4                            00000004
TRISB                             00000086
TRISB0                            00000000
TRISB1                            00000001
TRISB2                            00000002
TRISB3                            00000003
TRISB4                            00000004
TRISB5                            00000005
TRISB6                            00000006
TRISB7                            00000007
MPASM  5.44                    INSOLADORA.ASM   1-24-2017  21:23:02         PAGE  9


SYMBOL TABLE
  LABEL                             VALUE 

W                                 00000000
WR                                00000001
WREN                              00000002
WRERR                             00000003
Z                                 00000002
_CONFIG                           00002007
_CP_OFF                           00003FFF
_CP_ON                            0000000F
_DEVID1                           00002006
_FOSC_EXTRC                       00003FFF
_FOSC_HS                          00003FFE
_FOSC_LP                          00003FFC
_FOSC_XT                          00003FFD
_HS_OSC                           00003FFE
_IDLOC0                           00002000
_IDLOC1                           00002001
_IDLOC2                           00002002
_IDLOC3                           00002003
_INTE_VECT_0070                   00000070
_INTE_VECT_0089                   00000089
_INTE_VECT_00B4                   000000B4
_LP_OSC                           00003FFC
_PWRTE_OFF                        00003FFF
_PWRTE_ON                         00003FF7
_RC_OSC                           00003FFF
_WDTE_OFF                         00003FFB
_WDTE_ON                          00003FFF
_WDT_OFF                          00003FFB
_WDT_ON                           00003FFF
_XT_OSC                           00003FFD
__16F84A                          00000001

Errors   :     0
Warnings :     2 reported,     0 suppressed
Messages :     4 reported,     0 suppressed

